:020000040800F2
:1000000080260020B902000823430008F5230008D9
:1000100021430008F10500080F70000800000000EF
:10002000000000000000000000000000314E000849
:100030007506000800000000BF4C0008E5520008EB
:10004000D3020008D3020008D3020008D30200083C
:10005000D3020008D3020008D3020008D30200082C
:1000600099060008D3020008D30200086D060008B4
:100070006F060008D3020008D3020008D30200086C
:10008000D302000800000000AF040008D3020008FB
:100090009D6F0008D3020008D3020008D3020008B5
:1000A000D3020008D3020008D3020008D3020008DC
:1000B000D3020008D3020008D3020008D3020008CC
:1000C000D3020008D3020008D3020008D3020008BC
:1000D000D3020008D3020008D3020008D3020008AC
:1000E000D3020008D3020008D3020008D30200089C
:1000F000D3020008D3020008D30200080000000069
:1001000000000000D302000800000000D302000835
:10011000D302000800000000D3020008D302000848
:100120007106000873060008D3020008D302000815
:10013000D30200080000000000000000D302000805
:10014000D3020008D30200080000000000000000F5
:10015000000000000000000000000000000000009F
:10016000000000000000000000000000D3020008B2
:10017000D3020008000000000000000000000000A2
:1001800000000000D3020008000000000000000092
:10019000000000000000000000000000000000005F
:1001A0000000000000000000D3020008D302000895
:1001B000D3020008D3020008D302000800000000A8
:1001C00000000000D3020008000000000000000052
:1001D000D3020008D302000800F002F800F05CF837
:1001E0000AA090E8000C82448344AAF10107DA4592
:1001F00001D100F051F8AFF2090EBAE80F0013F088
:10020000010F18BFFB1A43F001031847E48E0000EA
:10021000048F00000A444FF0000C10F8013B13F06B
:10022000070408BF10F8014B1D1108BF10F8015B4F
:10023000641E05D010F8016B641E01F8016BF9D142
:1002400013F0080F1EBF10F8014BAD1C0C1B09D199
:100250006D1E58BF01F801CBFAD505E014F8016B0B
:1002600001F8016B6D1EF9D59142D6D3704700009D
:100270000023002400250026103A28BF78C1FBD8AF
:10028000520728BF30C148BF0B6070471FB508F048
:10029000E7FC1FBD10B510BD00F0CFF81146FFF709
:1002A000F5FF06F077FF00F0EDF803B4FFF7F2FF7B
:1002B00003BC00F0F5F800000948804709480047F2
:1002C000FEE7FEE7FEE7FEE7FEE7FEE7FEE7FEE706
:1002D000FEE7FEE704480549054A064B7047000063
:1002E000F5530008D9010008802000208026002056
:1002F000802200208022002053EA020C00F0698056
:100300002DE9F04B4FF00006002B1FBFB3FA83F529
:1003100003FA05F424FA05F65E4012BF1643B2FA5A
:1003200082F502FA05F4C5F120051EBF22FA05FC8C
:1003300044EA0C04203556EA044C4FEA144418BF32
:10034000641C4FF000084FF00009904271EB030C61
:1003500039D3002919BFB1FA81F701FA07F6B0FACB
:1003600080F700FA07F6C7F120071EBF20FA07FC46
:1003700046EA0C062037B6FBF4FCA7EB0507103F56
:1003800007F01F0BCBF120060CFA0BFB2CFA06F63C
:1003900044BFB3460026202FA4BF5E464FF0000B9B
:1003A0005BEA060C08BF4FF0010B19EB0B09ABFB26
:1003B000027C48EB0608C01B06FB02CC0BFB03CCFF
:1003C00071EB0C01C1E70B46024641464846BDE8C9
:1003D000F08B13B54FF000004FF00001AFF3008039
:1003E000BDE81C4070474FF0000200B5134694462C
:1003F0009646203922BFA0E80C50A0E80C50B1F17D
:100400002001BFF4F7AF090728BFA0E80C5048BF90
:100410000CC05DF804EB890028BF40F8042B08BF2E
:10042000704748BF20F8022B11F0804F18BF00F82A
:10043000012B7047704770477047754600F02CF8E5
:10044000AE4605006946534620F00700854618B0C1
:1004500020B5FFF73FFFBDE820404FF000064FF00A
:1004600000074FF000084FF0000B21F00701AC46E9
:10047000ACE8C009ACE8C009ACE8C009ACE8C00908
:100480008D46704710B50446AFF300802046BDE8A6
:100490001040FFF70ABF0000004870471C200020F2
:1004A00001491820ABBEFEE72600020070474FF05E
:1004B000A040016811F0400F1ABFD0F8001111F0F0
:1004C000400F704710B540210160C0F800114FF097
:1004D00090442020A06104F0F3FB2020A06210BD16
:1004E00090ED000A90ED011AF0EE001AF0EE400ACD
:1004F00041EE210A9FED021A60EE810A704700006A
:100500003ACD133F10B5044601F086FF00EE100A05
:10051000DFED120A1349B8EE400A30EE600A80EEB1
:10052000201A9FED0F0AD4ED010A21EE000A30EEE9
:10053000800A10EE100A8842C8BFDFED0B0A07DC04
:1005400010EE100A0949884288BFDFED090A01D977
:1005500030EE200AB1EE400A10BD000000004D430D
:10056000DB0F4940DB0F4940DB0FC9C0DB0F49C03F
:10057000DB0FC940D1ED010A90ED001A90ED012A80
:10058000D1ED001A20EE810A60EE820A01EE820AA5
:1005900041EEC10A7047F0EE400A90ED000A90ED7E
:1005A000041AD0ED011A90ED052A20EE010A01EEA1
:1005B000820AD0ED021A90ED062A01EEA00AD0EDD3
:1005C000031A80ED051A01EE820A80ED040AC0EDDF
:1005D000060A704780EC040A9FED040A80ED060AC3
:1005E00080ED050A80ED040A70470000000000005D
:1005F000FEE70020704700207047000010B5002281
:100600000449054805F0BFF80449034805F0B2F86D
:10061000002010BD341C00207C1300204C1800204A
:1006200010B50146034805F0A5F8024805F040F86A
:10063000002010BD7C130020002070470A460949A5
:1006400010B5D1F8BC12D1F8141200291CBF01203A
:1006500010BD0146034805F096F8BDE8104001487A
:1006600005F004B97C13002001F02CBF70477047DF
:10067000704770477047D1ED011AD0ED000A91ED37
:10068000002A90ED011A21EEA00A62EE200A02EE85
:10069000410A41EE810A70470E48016811F0040FCB
:1006A00008BF704710B5042101600B4C2068017829
:1006B000002908BF10BD417821B14069BDE8104054
:1006C00002F04EB80121417001F0A0FE216848619E
:1006D00010BD0000140401409C00002072B6FEE72B
:1006E0002DE9F04F774DDFF8E081784C784EDFF858
:1006F000E4B1794F4FF0000A2DED028B83B02868EA
:10070000417C002957D001297DD002291EBF03B0AA
:10071000BDEC028BBDE8F08FDFF8C091D9F8000086
:10072000FFF7F0FED9F80000DFF8B49180ED020A7F
:10073000D9F8000090ED0C0A01F0C4FE206880EDAD
:10074000090AC0ED0A0AD9F8001001F085FC2068FA
:10075000F0EE400A90ED110AF0EE601AD8F80000B1
:1007600002F096F82068B0EE401A90ED120AB0EE52
:10077000412A386802F094F972EE210A3068C0ED1F
:10078000020A80ED030A28684168491C41600A2971
:100790000CD1C0F804A0D9F8000090ED0D0ADBF8E8
:1007A000000004F04DFD386880ED000A03B0BDEC98
:1007B000028BBDE8F08F41684A1C9FED4A8A426077
:1007C000B1F5FA6F3BD24848006890ED030AD8F8BB
:1007D000000080ED000A3868B0EE480A80ED000A9B
:1007E00001F070FE206880ED090AC0ED0A0A3C3075
:1007F000FFF776FE8DED000ACDED010A206800F1CD
:100800002401684600E051E0FFF7B4FE206880ED67
:10081000110AC0ED120AD8F8000002F039F8206879
:10082000F0EE400A90ED120AF0EE601A386802F01D
:1008300037F93068C0ED021A80ED030AB6E7DFED44
:100840002B1A9FED2B1ADFED2B0A9FED2B0A01F0DF
:10085000EBFCDFED2A1A9FED2A1ADFED2A0A9FED45
:100860002A0A01F0B9FCDFED291A9FED291ADFED04
:10087000290A9FED290A01F0D1FCD8F80000B0EE5A
:10088000000A80ED000A30689FED240A80ED038A9B
:1008900080ED028ADBF8000080ED000A08F08AF99A
:1008A00028680121C0F804A041747FE741684A1C10
:1008B0004260B1F57A7F84BFC0F804A00221F3D86A
:1008C00074E7000068000020AC000020A0000020B9
:1008D00094000020B4000020B00000206C00002034
:1008E000A400002000000000C000002024B4E53B6C
:1008F00077BAF33BBD5256BF1058E93FDAACFABCA9
:10090000DAACFA3CF01678BF9318F43FAC1C5ABE30
:10091000AC1C5A3EE71D47BF508DC73FD253FB4129
:100920002DE9F04F654CDFF898914FF0000A2DED5E
:10093000028B83B02068417C9FED628A624F634DD9
:10094000634E89B101296AD002291EBF03B0BDECF4
:10095000028BBDE8F08FDFF87C81DFF87CB1B8F85E
:10096000000000287ED165E041684A1C426054487E
:10097000B1F5FA6F00683BD25849096891ED030A56
:1009800080ED000A3068B0EE480A80ED000A01F000
:1009900099FD386880ED090AC0ED0A0A3C30FFF77E
:1009A0009FFD8DED000ACDED010A386800F12401AC
:1009B0006846FFF7DFFD386880ED110AC0ED120AC6
:1009C000D9F8000001F064FF3868F0EE400A90EDBD
:1009D000120AF0EE601A306802F062F82868C0ED82
:1009E000021A80ED030A03B0BDEC028BBDE8F08F64
:1009F000B0EE000A80ED000A28689FED390A80ED0C
:100A0000038A80ED028A3748006880ED000A08F00A
:100A1000D1F820680121C0F804A04174E3E74168DF
:100A20004A1C4260B1F57A7F84BFC0F804A002215D
:100A3000D9D9F2E7B0EE480A01F044FD386880EDFC
:100A4000090AC0ED0A0ADBF8001001F00FFC386853
:100A5000F0EE401A90ED110AD9F8000001F018FFED
:100A6000386800E009E090ED120A306802F018F8EA
:100A70002868C0ED021A80ED038AB8F800001A4910
:100A8000401CA1FB0021C908A1EB810100EB810002
:100A9000A8F8000020684168491C41600A29A2D1D9
:100AA000C0F804A0DBF8000090ED140A0D480068BF
:100AB00004F0C6FB306880ED000A94E7680000206F
:100AC000AC00002000000000A000002094000020E6
:100AD000B000002050000020A8000020C00000202E
:100AE000D253FB41B4000020ABAAAAAA2DE9F04FD3
:100AF000974D9C4ADFF85C92974F984C984E4FF078
:100B000000082DED028B83B028681168437C002B10
:100B100051D0012B7ED0DFF850A29FED948ADFF8F0
:100B200050B2022B77D0032B1EBF03B0BDEC028B5B
:100B3000BDE8F08F904691ED020A01F0C3FC2068F9
:100B400080ED090AC0ED0A0A3C30FFF7C9FC8DEDC3
:100B5000000ACDED010A206800F124016846FFF784
:100B600009FD206880ED110AC0ED120AD9F80000D5
:100B700001F08EFE2068F0EE400A90ED120AF0EED1
:100B8000601A386801F08CFF3068C0ED021A80ED01
:100B9000030AD8F80000296890ED020AD1ED060A90
:100BA00090ED011A00EE810A10EE101A80ED020A93
:100BB00051457CDCC7E043685A1C9FED6E0A4260D9
:100BC000644AB3F5FA6F12683AD2D1ED030AC2ED66
:100BD000000A386880ED000A01F074FC206880ED9E
:100BE000090AC0ED0A0A3C30FFF77AFC8DED000AD5
:100BF000CDED010A206800F124016846FFF7BAFC38
:100C0000206880ED110AC0ED120AD9F8000001F049
:100C10003FFE01E023E032E02068F0EE400A90ED74
:100C2000120AF0EE601A386801F03AFF3068C0ED41
:100C3000021A80ED030A03B0BDEC028BBDE8F08F11
:100C4000C0F8048082ED000A306880ED030A80ED70
:100C5000020A07F0AFFF296801204874EBE74268F9
:100C6000531C4360642AE6D9386891ED030A0221D7
:100C700080ED000A2868C0F804804174DBE791ED3C
:100C8000020A01F01FFC206880ED090AC0ED0A0A83
:100C90003C30FFF725FC8DED000ACDED010A206800
:100CA00000F124016846FFF765FC206800E03CE0A5
:100CB00080ED110AC0ED120AD9F8000001F0E8FD3C
:100CC0002068F0EE400A90ED120AF0EE601A3868E3
:100CD00001F0E6FE3068C0ED021A80ED030A2968D3
:100CE0004A68501C48601F48006803699A420AD24B
:100CF00090ED010AD1ED060A90ED001A00EE810A8E
:100D000080ED010A03E00322C1F804804A7490EDEB
:100D1000020AD1ED060A90ED011A00EE810A10EEEA
:100D2000101A80ED020A514502DD30EE480A07E054
:100D300010EE101A59457FF67EAF00BF30EE080A5C
:100D400080ED020A77E710EE101A5945F6D872E7DF
:100D500068000020AC000020B0000020A0000020AF
:100D600094000020C0000020DB0F4940DB0FC94089
:100D7000DB0F49C0000000002DE9F04FF54D4FF0AA
:100D8000000B2DED028B83B0296891F811C09FED07
:100D9000F28AF24CF24EDFEDF38ADFF8CC83DFF813
:100DA000CCA3F44FDFF8C893D8F800303868DAF8ED
:100DB0000020BCF1050F22BF03B0BDEC028BBDE8E3
:100DC000F08FDFE80CF0035F6FD4FD00486800F19E
:100DD000010CC1F804C0B0F5FA6F3FD292ED030ADE
:100DE00083ED000AD9F80000B0EE480A80ED000A51
:100DF00001F068FB206880ED090AC0ED0A0A3C306A
:100E0000FFF76EFB8DED000ACDED010A206800F1C1
:100E100024016846FFF7AEFB206880ED110AC0EDA3
:100E2000120AD8F8000001F033FD2068F0EE401AF5
:100E300090ED120AD9F8000001F032FE3068F0EEB1
:100E4000400AC0ED021AC0ED030A40F2E24001F090
:100E500087FC03B0BDEC028BBDE8F08FC1F804B095
:100E600083ED008A306880ED038A80ED028A07F006
:100E7000A1FE3968012040F2E24208708A612968C7
:100E80004874E6E7486800F1010CC1F804C0642822
:100E9000DFD992ED030A022183ED000A2868C0F829
:100EA00004B0D7E092ED020A01F00CFB206880ED5F
:100EB000090AC0ED0A0A3C30FFF712FB8DED000A6B
:100EC000CDED010A206800F124016846FFF752FBCE
:100ED000206880ED110AC0ED120AD8F8000001F078
:100EE000D7FC2068F0EE401A90ED120AD9F8000005
:100EF00001F0D6FD3068F0EE400AC0ED021AC0EDF8
:100F0000030A29684A68501C4860DAF8000003693F
:100F10009A420AD290ED010AD1ED060A90ED001A2C
:100F200000EE810A80ED010A03E00322C1F804B05B
:100F30004A7490ED020AD1ED060A90ED011A8E4A2C
:100F400000EE810A10EE101A80ED020A9142C8BF2D
:100F500030EE680A08DC10EE101A884A914288BF09
:100F600030EE280A7FF675AF80ED020A71E701F0D6
:100F7000DDFC386880ED080ADAF8000090ED020A1E
:100F800001F0A0FA206880ED090AC0ED0A0A3C30A1
:100F9000FFF7A6FA8DED000ACDED010A206800F1F9
:100FA00024016846FFF7E6FA206880ED110AC0EDDB
:100FB000120AD8F8000001F06BFCF0EE401A00E0D5
:100FC0004AE0206890ED120AD9F8000001F068FDAF
:100FD00030686B49F0EE400AC0ED021AC0ED030A1A
:100FE0000A6800F11001684602F090FCDAF800008F
:100FF0002A68614BD0ED020A92ED060A90ED011AC3
:1010000040EE010A10EE901AC0ED020A9942C8BFE4
:1010100030EEE80A07DC10EE901A584B994288BF70
:1010200030EEA80A01D980ED020A51684B1C5360CA
:10103000B1F5FA5F7FF60DAF90ED010A514804213A
:10104000006880ED000AD8F8000080ED008A28686A
:10105000C0F804B04174FCE601F068FC3868DFF8C1
:1010600020A180ED080ADAF8000090ED0D0A01F0E9
:1010700029FA206880ED090AC0ED0A0A3C30FFF722
:101080002FFA8DED000ACDED010A206800F1240150
:101090006846FFF76FFA206880ED110AC0ED120A6A
:1010A000D8F8000001F0F4FB2068F0EE401A90ED53
:1010B000120AD9F8000001F0F3FC33482168DAF88D
:1010C00000200068D1ED120A91ED112A90ED021A6C
:1010D000D0ED012A243120EE811AD2ED0C0A41EE26
:1010E000601A90ED061A306802EE221AC0ED021A5C
:1010F00001EE200A80ED030A0830FFF7BCFA3068E1
:1011000000F1100180ED040AC0ED050A6846DAF826
:10111000002002F0FBFB28684168491C41600A2955
:101120007FF497AEC0F804B0386890ED070A01F07C
:1011300017FC386880ED070ADAF8000090ED0C0A19
:101140001048006804F07CF8D9F8000080ED000A2F
:101150007FE600006800002000000000A0000020E2
:1011600094000020DB0FC940AC000020C00000202C
:10117000B00000209C000020DB0F4940DB0F49C07D
:10118000C4000020B4000020980000202DE9F04F9A
:10119000784D774EDFF8E0A1784C794FDFF8E4B175
:1011A000DFF8E4814FF000092DED028B83B0296850
:1011B00030684A7C90ED078A002A6AD0012A7CD0E8
:1011C000022A1EBF03B0BDEC028BBDE8F08F01F018
:1011D000ADFB306880ED080A01F074F9206880EDFD
:1011E000090AC0ED0A0A3C30FFF77AF98DED000AD2
:1011F000CDED010A206800F124016846FFF7BAF935
:10120000206880ED110AC0ED120ADAF8000001F042
:101210003FFB2068F0EE401A90ED120AD8F800006B
:1012200001F03EFC594821680068D1ED120A90EDAA
:10123000021A90ED012A60EE810A91ED111A40EE3A
:10124000C81AD0ED060A386841EE020AC0ED021A4B
:1012500000EE880A80ED030A28684168491C416055
:101260000A2911D1C0F80490306890ED070A01F006
:1012700077FB306880ED070ADBF8000003F0E0FF41
:10128000D8F8000080ED000A03B0BDEC028BBDE889
:10129000F08F4A6841F28833501C486036489FED11
:1012A0003C0A9A42006837D2F1EE000AC0ED000A0B
:1012B000D8F8000080ED000A00E04BE001F002F9F0
:1012C000206880ED090AC0ED0A0A3C30FFF708F9F2
:1012D0008DED000ACDED010A206800F12401684679
:1012E000FFF748F9206880ED110AC0ED120ADAF81C
:1012F000000001F0CDFA2068F0EE400A90ED120AED
:10130000F0EE601AD8F8000001F0CAFB3868C0EDB2
:10131000021A80ED030AB7E7C1F8049080ED000AD5
:10132000DBF80000DFED1B0A0124C0ED000A38687D
:1013300040F2E24180ED030A80ED020A3068047059
:10134000816107F037FC40F2E24001F009FA2868B9
:10135000447499E74868421C4A60642894D9002084
:1013600001F00CFA28680221C0F8049041748BE760
:101370009C00002068000020AC000020A00000209D
:1013800094000020B4000020B0000020980000204D
:101390000000000063149D432DE9F0414D4E4E4F77
:1013A00088B03068407C00287ED001281CBF08B07F
:1013B000BDE8F081494D286890ED0B0A01F082F8F4
:1013C000474C206880ED090AC0ED0A0A3C30FFF75F
:1013D00087F88DED040ACDED050A206810EE902AFD
:1013E00000F1240180ED130A026504A8FFF7C2F89A
:1013F000206880ED110AC0ED120A386801F048FA41
:101400008DED020A2068374F90ED120A386801F01E
:1014100047FB8DED030A2068334C2A68D0ED120A91
:10142000216891ED021A60EE811A92ED0A1ADDED43
:10143000020A41EEC10ACDED020AD1ED061A90ED85
:10144000112AD1ED012A294942EE221A01EE810A20
:101450008DED030A0968C1ED020A9DED030A81EDD5
:10146000030A00F1240102A8FFF705F98DED060A31
:10147000CDED070A04A8DFF87880009006ABD8F815
:1014800000202968206802F04DFF30684168491C3F
:1014900041600A291CBF08B0BDE8F081002141600D
:1014A000286890ED0A0A00E009E0D8F8000003F08F
:1014B000C7FE386880ED000A08B0BDE8F0813868E2
:1014C0009FED0C0A80ED000A31680120487408B0D5
:1014D000BDE8F08168000020AC000020BC000020C6
:1014E000A0000020B0000020980000209400002000
:1014F000B4000020000000002DE9F0478C4DDFF81B
:1015000034A28D4C28688D4EDFF83482417C8D4F9B
:1015100088B04FF0000900297ED0012900F0F48046
:1015200002291CBF08B0BDE8F087D8F8000001F020
:10153000FDF9D8F80000DFF8108280ED080AD8F82D
:10154000000090ED0B0A00F0BDFF206880ED090A55
:10155000C0ED0A0A3C30FEF7C3FF8DED040ACDED65
:10156000050A206810EE902A00F1240180ED130A8C
:10157000026504A8FEF7FEFF206880ED110AC0EDA9
:10158000120ADAF8000001F083F98DED020A2068F2
:1015900090ED120A386801F083FA8DED030A206895
:1015A0006A4CD8F80020D0ED120A216891ED021A99
:1015B00060EE811A92ED0A1ADDED020A41EEC10ACF
:1015C000CDED020AD1ED061A90ED112AD1ED012AD6
:1015D00042EE221A01EE810A8DED030A3168C1ED57
:1015E000020A9DED030A81ED030A00F1240102A81D
:1015F000FFF741F88DED060ACDED070A04A8544E19
:10160000009006AB3268D8F80010206802F08AFE1D
:1016100028684168491C00E014E041600A291CBFA9
:1016200008B0BDE8F087C0F80490D8F8000090ED4D
:101630000A0A306803F004FE386880ED000A08B03A
:10164000BDE8F087426844F62063511C9FED410AD3
:10165000416038499A4209683BD23F480068D0ED62
:10166000030AC1ED000A386880ED000A00F02AFF85
:10167000206880ED090AC0ED0A0A3C30FEF730FF11
:101680008DED040ACDED050A206800F1240104A8BF
:10169000FEF770FF206880ED110AC0ED120ADAF83B
:1016A000000001F0F5F88DED020A206890ED120AB5
:1016B000386801F0F5F98DED030A30689DED020AF6
:1016C00080ED020A9DED030A80ED030A08B0BDE833
:1016D000F087C0F8049081ED000A3068012440F2E0
:1016E000E24180ED030A80ED020AD8F800000470A0
:1016F000816107F05FFA40F2E24001F031F82868BA
:10170000447408B0BDE8F08741684A1C426064290F
:101710009CBF08B0BDE8F087002001F02FF82868D2
:101720000221C0F80490417408B0BDE8F0870000C1
:1017300068000020AC000020A000002094000020E1
:101740009C000020B0000020BC0000209800002079
:10175000B400002000000000C0000020F0B54E4D95
:101760004E4E4F4C286883B00027417CF1B10129CF
:1017700068D002291CBF03B0F0BD20683C30FEF7E2
:10178000AFFE8DED000ACDED010A206800F12401C5
:101790006846FEF7EFFE2268424982ED110AC2ED6B
:1017A000120A28684368192B5DD155E041689FED06
:1017B0003E0A4A1C4260B1F5FA6F36D23B4D3C4FAF
:1017C000F1EE000A2868C0ED000A386880ED000AD2
:1017D00000F078FE206880ED090AC0ED0A0A3C306E
:1017E000FEF77EFE8DED000ACDED010A206800F1C6
:1017F00024016846FEF7BEFE206880ED110AC0EDA8
:10180000120A286801F044F82068F0EE400A90EDD2
:10181000120AF0EE601A386801F042F93068C0ED43
:10182000021A80ED030A03B0F0BD306880ED020AB1
:1018300080ED030A07F0BEF9286801214760417472
:1018400003B0F0BD41684A1C4260642987BF47600D
:10185000022103B0F0BDF2E7476091ED030AB1EE5B
:10186000400A81ED030A43685B1C43601148012B69
:101870000BD1036891ED031A9FED0F0AD3ED010A16
:10188000316800EEC10A81ED020A92ED110A00688A
:1018900002F0D0F803B0F0BD6800002094000020F2
:1018A000A00000205000002000000000AC0000203C
:1018B000B0000020B8000020CDCC4C3E00F09BBD15
:1018C00000F0A0BD02488168426811448160704701
:1018D000EC00002010B50024032000F08DF8062055
:1018E00000F008F8002814BF012400F025F8204675
:1018F00010BD000070B50E4E05460024706898B10A
:101900004FF47A71B1FBF0F00A490968B1FBF0F0CD
:1019100000F08CFB40B9102D06D200222946501E43
:1019200000F038F8356000E00124204670BD00006A
:10193000EC000020040000200D4808B5016E41F0C5
:1019400001010166016E01F001010091816D41F01C
:1019500080518165806D00F08050009000F054FB54
:10196000022000F059FBBDE8084000F045BB000034
:10197000001002400028B8BF704700F01F0101228C
:1019800002FA01F14009800000F1E020C0F80011E6
:1019900070470000174B10B41B68C3F30223C3F158
:1019A000070CBCF1040F88BF4FF0040C1C1D072C62
:1019B00034BF0023DB1E012404FA0CFCACF1010C43
:1019C0000CEA0101994004FA03F35B1E1A4011432B
:1019D00000284FEA0111A1BF00F1E02080F80014B7
:1019E00010BC704700F00F0000F1E02080F8141DDB
:1019F00010BC70470CED00E0074900F007000A68D2
:101A00004FF6FF031A4042EA002040F0FD7040F01C
:101A100080600860704700000CED00E00122016862
:101A2000C0F8D022002280F8C822B1F8540040F05B
:101A30000100A1F85400B1F8540040F00200A1F8F0
:101A4000540010467047000070B5104D044679B13F
:101A5000012918BF70BDD4F8D80204F0B2F9607A39
:101A6000002808BF70BD286840F00600286070BDDF
:101A7000607A28B103F03EFC286820F00600286058
:101A8000D4F8D802BDE8704004F015B910ED00E0BC
:101A900011F0800F18BF01F0070101EB810100EB8D
:101AA000C10014BF103000F5A87099B232B1012204
:101AB00002730181190C41810020704700220273DA
:101AC000C180F9E701EB810200EBC202D0F8D80235
:101AD000526A03F0AABF01EB810200EBC202D0F808
:101AE000D802D2F8642103F0FCBF70B5044601F0BF
:101AF000070202EB820011F0800F04EBC0004FF0F0
:101B000001034FF0000519BF00F11001437400F507
:101B1000A87180F851510A7094F89002012804BF0E
:101B2000022070BD84F89032206804F07BFD84F8B8
:101B30009052002070BD70B5044601F00F0022796C
:101B4000904284BF012070BD11F0800F01F00702A8
:101B500002EB820004EBC0004FF001034FF00005E0
:101B600019BF00F11001437400F5A87180F85151BC
:101B70008D700A7094F89002012804BF022070BD95
:101B800084F89032206804F020FE84F890520020FF
:101B900070BD01F0070101EB810100EBC100D0F83D
:101BA0006C0170472DE9F041044601F0070C0CEB85
:101BB0008C0011F0800F04EBC0004FF001064FF0D5
:101BC000000519BF00F11001467400F5A87180F8F6
:101BD000515181F800C00A61CB70022B08BF0D7112
:101BE00094F89002012804BF0220BDE8F08184F837
:101BF0009062206804F09AFB284684F89052BDE871
:101C0000F08101F0070C0CEB8C0110B500EBC10169
:101C1000C1E959230022C1F86C2181F8512181F8D2
:101C200050C1006801F5A87104F032FE002010BD1B
:101C300070B50446007901F00702824284BF01209A
:101C400070BD11F0800F4FF000054FF0010014BF80
:101C500002EB820101EB810104EBC10119BF487461
:101C6000103181F8515101F5A87188700A7094F80B
:101C70009022012A04BF022070BD84F890022068DF
:101C800004F0EBFD84F89052002070BD01F0070CC9
:101C90000CEB8C0110B500EBC101C1E90923012255
:101CA00081F834200B630023CB624A7401F810CF13
:101CB000006804F0EDFD002010BD70B5044600681A
:101CC00005F072F910F4004F04D02046BDE87040D2
:101CD00002F0C4BB10F4806F4FF000054FF0010616
:101CE00018D02068B0F8441021F48061A0F84410A6
:101CF000204600F013F994F890020021012808BF53
:101D000070BD84F890622173206805F066F984F84C
:101D1000905270BD10F4804F05D02068B0F8441088
:101D200021F4804107E010F4005F07D02068B0F88C
:101D3000441021F40051A0F8441070BD10F4805FED
:101D400020D02068B0F8401021F00401A0F8401025
:101D50002068B0F8401021F00801A0F8401094F875
:101D6000C802012805D184F8C85200212046FFF797
:101D70006BFE204600F0E6F82068B0F8441021F42D
:101D80008051D8E710F4006F18D02068B0F84010E8
:101D900041F00801A0F840102068B0F8441021F488
:101DA0000061A0F844102068B0F8401041F0040130
:101DB000A0F84010204600F00DF970BD10F0800F23
:101DC0002BD02068B0F8441021F08001A0F8441016
:101DD00094F8C80218B1204600F0FCF870BD2068E5
:101DE000B0F8401041F00401A0F840102068B0F8AD
:101DF000401041F00801A0F8401084F8C862206843
:101E0000B0F854003C2101EA9000C4F8CC0220460E
:101E1000BDE870400121FFF717BE10F4007F0AD023
:101E20002068B0F8441021F40071A0F84410204656
:101E300000F09CF870BD10F4807F08BF70BD206872
:101E4000B0F8441021F4807175E770B5050004BF47
:101E5000012070BD95F89102002420B985F89042C8
:101E6000284600F037F8032085F89102286804F02E
:101E7000A2FC2A790126002A18BF00201AD000EB04
:101E8000800105EBC1014E740874CC740C624C6285
:101E90008C6281F8514181F8500181F85341C1F8B9
:101EA0006041C1F86441C1F86841511E401C11F005
:101EB000FF02E4D1D5E90001AA6804F070FC2C739C
:101EC00085F89162A87A012804BF2846FFF7A6FD8D
:101ED000002070BD08B50068A0F18041B1F5B8419F
:101EE00018BF08BD0C4850F8881F21F0406140F829
:101EF0003019016841F4000101600068002200F41B
:101F00000000009011461420FFF744FDBDE8084092
:101F10001420FFF72FBD00000010024070B50446EA
:101F200040790125022818BFFEF7D8FB2946D4F8CE
:101F3000D80203F0DBFED4F8D802BDE8704003F00D
:101F400089BE000010B50446407A30B106480168E9
:101F500021F00601016003F0CDF9D4F8D802BDE804
:101F6000104003F0A8BE000010ED00E0D0F8D80249
:101F700003F0ABBE10B5044690F89002012804BFF0
:101F8000022010BD012084F890022173206805F022
:101F900024F8002084F8900210BDD0F8D82200F573
:101FA0002671104603F0B7BE10B5044690F89002B3
:101FB000012804BF022010BD012084F8900220688F
:101FC00004F0E3FF206804F0E2FB002084F89002B4
:101FD00010BD000010B50446D0F8D80203F0F1FEA1
:101FE000607A002808BF10BD0248016841F0060170
:101FF000016010BD10ED00E00248816841F48041AD
:1020000081607047007000400248016B21F00101BF
:10201000016370470000014003490A6B22F002028D
:10202000104308637047000000000140411EB1F1F9
:10203000807F24BF012070474FF0E0204161054AB6
:10204000F02182F8141D0021816107210161002027
:10205000704700000FE000E02DE9F04105465448CC
:102060000C462DED048B006891ED0B0AD0ED068A2D
:1020700000F028FA84ED010AC4ED020A94ED0B0A7F
:10208000D4ED120A9FED4B8A4B4E4C4F60EE880AFE
:1020900000EEA80A10EE100A84ED0B0AB042C8BF89
:1020A00030EE480A06DC10EE100AB84288BF30EE67
:1020B000080A01D984ED0B0A05F13C00FEF710FA7D
:1020C00084ED030AC4ED040A05F1240104F10C00B7
:1020D000FEF750FA84ED050AC4ED060A3848FEF70B
:1020E0005AFA84ED070A94ED060A3648FEF753FAC9
:1020F00084ED080A94ED050AD4ED070A324830EE63
:10210000600A01F0D5FB85ED110A94ED060AD4EDC5
:10211000080A2E4830EE600A01F0CAFB85ED120A6B
:1021200094ED080AD4ED020A294820EE209AB0EE78
:10213000490AFEF730FA39EE400AD4ED0F0A20EED4
:10214000800A84ED0E0AD4ED100A40EE280AC4ED90
:10215000100A94ED141A60EE810A94ED131A40EE01
:10216000010AC4ED0D0A94ED110A00EEA80A10EE62
:10217000100A84ED110AB042C4BFDFED160A30EE3A
:10218000200A06DC10EE100AB84288BF38EE400A7A
:1021900001D984ED110A84ED0C0A94ED020AD4ED04
:1021A000000ABDEC048B20EE200ABDE8F08100009F
:1021B00068000020DB0FC940DB0F4940DB0F49C03E
:1021C000AC020020C802002074020020900200200F
:1021D000E4020020DB0FC9C010B50E482DED048BC2
:1021E000B0EE618AF0EE418AB0EE609AF0EE409A6D
:1021F000FEF7F0F9F0EE481AB0EE681AF0EE490A70
:10220000B0EE690ABDEC048BBDE810400248FEF751
:10221000E1B90000AC020020C80200200148FEF72E
:10222000D9B90000E402002010B50E482DED048B52
:10223000B0EE618AF0EE418AB0EE609AF0EE409A1C
:1022400001F056FBF0EE481AB0EE681AF0EE490ABB
:10225000B0EE690ABDEC048BBDE81040024801F005
:1022600047BB0000740200209002002070B50546B4
:102270002DED028B0C463C30FEF732F984ED040A5A
:10228000C4ED050A05F1240104F11000FEF772F90E
:10229000B0EE408AF0EE608A85ED118AC5ED128AB3
:1022A00084ED060AC4ED070A94ED021A30EE011A15
:1022B000B6EE000A21EE001A85ED111A94ED031A0C
:1022C00070EE810A60EE800AC5ED120AD4ED040AB0
:1022D00094ED001AD4ED011A94F8580070EEC10A7A
:1022E00094ED051A002831EE611A60EE800A21EEA5
:1022F000000A1CBFF1EE600AB1EE400AC4ED0A0A02
:1023000060EEA00A84ED0B0A40EE000AB0EE600A0F
:10231000FFF7D4FAD4ED0A0A3148324960EE800A58
:10232000C4ED0C0A94ED0B1A21EE000A84ED0D0A9F
:1023300095ED0A1A20EE010A95ED091A00EEC10A80
:1023400084ED150A0068D4ED0F0AD0ED061A41EEAF
:10235000800AC4ED0F0A94ED121A60EE810A94ED22
:10236000111A40EE010AC4ED140A94ED101A01EEA0
:10237000A01A11EE100A884206DD9FED1B0A31EE0D
:10238000000A84ED100A0DE011EE100A1749884288
:1023900098BF84ED101A05D99FED150A31EE000A99
:1023A00084ED100A94ED100A84ED130AD4E90401B7
:1023B000C4E9000184ED028AC4ED038A94F8580050
:1023C00000280CBF0120002084F8580094ED0E0A6C
:1023D000B1EE400A84ED0E0ABDEC028B70BD000028
:1023E00068000020DB0F4940DB0FC9C0DB0F49C08C
:1023F000DB0FC940FEE7F1EEC00AB7EE001A81EE2E
:10240000200A7047B1EEC00A70470000014800681A
:10241000704700002404004006484FF4CD71006866
:102420000088C000C0F3CC00B0FBF1F201FB120049
:10243000704700006C0000204FF0A040816821F040
:102440003F0121F0004141F004018160016811F079
:10245000040FFBD0016C9FED141A89B200EE101A24
:10246000DFED121AF8EE400A80EE810AF3EE0F0A51
:1024700020EE210A20EE200A016811F0040FFBD0A3
:10248000006C80B200EE900A0A48F8EE600A00681C
:1024900080EE812A9FED061A62EE210AC1EE201A13
:1024A000C0ED001A7047000000FF7F4733335340F0
:1024B00000109B3FA000002001480068704700000A
:1024C000244401409FED0F1A1049C0EE010A9FED10
:1024D0000E0A20EE800ABDEEC00A10EE100A486017
:1024E0008868896800EE100A00EE901A9FED081ABD
:1024F000B8EEC00AF8EEE00A20EE010A60EE810AAA
:1025000070470000DB0F49400000004F000C024004
:10251000000000300B4800694FF0000110F0400F40
:10252000094818BF81800BD18288521C92B28280E8
:10253000B2F5967F04D98180017881F001010170A4
:102540000078704700040048C80000200F48114977
:10255000006890ED020A0E4880ED000A096891EDCE
:102560000F0A0D4980ED010A096891ED0D0A80ED11
:10257000020A91ED0C0A094980ED030A096891ED00
:10258000080A182180ED040AFEF758B8C0000020A0
:10259000D4000020A0000020C40000209C000020E7
:1025A0002DE9F001614B4FF47A71D3F808C0BCFB00
:1025B000F1F001FB10C0002846D15D48426842F4AA
:1025C000005242605B4802880088120A42EA0020FA
:1025D00000B2401100EE100A5748F4EE000AB8EEBF
:1025E000C00A0068554C564A20EE200A80ED0C0ABD
:1025F00010EE100AA0421EDD5248446C24F4004440
:102600004464046A24F001040462046A24F00404AB
:102610000462046A24F010040462046A24F0400492
:102620000462046A24F480740462046A24F48064FA
:1026300004620120906150694FF40054844300F417
:10264000005044EA004090615888B0FBF1F201FB71
:102650001207441CB4FBF1F201FB1246821CB2FBD0
:10266000F1F501FB1525C01CB0FBF1F201FB1208CE
:102670003548C15D532901BF815D3A2910F8081022
:102680000A2919D13149425D0968C92A24BF91ED4F
:10269000000AB1EE400A07D200EE102ADFED2C0A44
:1026A000B8EE400A20EE200A81ED000A0021815593
:1026B000C15500F80810415526495C80086810F0A3
:1026C000200F1FBF086810F0020F6FF02000086095
:1026D00025D10868204A10F0400F1CBF086810F090
:1026E000040F0DD06FF040040C6000209568401C72
:1026F0000C28FBDB086810F0400F18BF0C600EE0E0
:102700009068096811F0010F18BF002807D013491D
:10271000086090684860906888609068C8600CF1B4
:1027200001009860BDE8F00170470000C80000207B
:102730000054004000000020A00000200000824261
:1027400000080048002C01404C180020B400002074
:10275000DB0FC94004080650000806503809002065
:10276000014948627047000000040040024B586372
:102770009963DA6370470000002C01400149486208
:1027800070470000004401401048016A41F0010117
:102790000162016A41F004010162016A41F0100125
:1027A0000162016A41F040010162016A41F48071F5
:1027B0000162016A41F480610162416C41F40041AF
:1027C000416403490120886270470000002C0140E9
:1027D000000800481048416C21F400414164016A3E
:1027E00021F001010162016A21F004010162016A24
:1027F00021F010010162016A21F040010162016AC9
:1028000021F480710162016A21F48061016203494F
:102810000120886170470000002C0140000800483A
:102820001548006880B200EE100A1448B8EE400A5D
:1028300000689FED131A80B200EE900A80EE012A24
:10284000B8EE603ADFED100ADFED0E1ADFED0F2A69
:10285000B0EE600A02EE610AB3EE042AC0EE023A5C
:1028600023EEA20AC3EE013A43EEE10A80EE821A99
:1028700061EE220A70470000800000508001005085
:1028800000FF7F47333353403333D33F0000484387
:102890001C49D0ED000A1C4A096870EEC00A90ED90
:1028A000030A91ED061A00EE810A10EE101A80ED6F
:1028B000030A9142C4BF9FED150A80ED030A08DCAC
:1028C00010EE101A124A914228BF9FED120A80EDB5
:1028D000030A9FED111A114920EE010AB0EE001A09
:1028E00000EE810A10EE100A8842C4BF9FED0C0A68
:1028F000704710EE100A0B49884200D870479FEDD0
:102900000A0A7047680000202D6F8C3F2D6F8C3FA6
:102910002D6F8CBF2D6F8CBF000096414992A44152
:102920004992A4414992A4C14992A4C110B5044658
:10293000FFF76CFDA168D4ED040AB0FBF1F201FBD6
:10294000120000EE100AB8EEC00A80EE201A9FEDC9
:10295000030AF0EE400A11EE200A10BDDB0F4940D9
:1029600070B505462DED028BB0EE408A8669FFF703
:102970004DFD0446FFF7A0FD08EE900A0020FFF78A
:10298000FDFE3F4BA01B5A6851424FEAE17C01EB30
:102990009C7C3C49B0EBAC0F07DD4FEAE27C02EBDC
:1029A0009C72B0EBA20FB8BFC8603748B5EEC08AC2
:1029B0000068F1EE10FA846138BFB1EE488A0A78F7
:1029C0009FED320ADFED320A002A3FD093ED011A63
:1029D000304BF8EE681AB8EEC11A1B689FED2F2A2B
:1029E00021EE211AD3ED071A2B4B61EE211A1B6839
:1029F0001B7801EE103AB8EE411A21EE022A82EE5F
:102A0000211AD1ED021A21EE001A01EEA01A81ED71
:102A1000021AD1ED031AF8EEE11A21EE811A21EE25
:102A2000000A91ED011A01EE200A81ED010A90EDF4
:102A30000A0AB4EEC80AF1EE10FA38BFD04300D249
:102A4000087091ED010ABDEC028B70BD91ED031A87
:102A5000D5ED031AB8EEC11A21EE811A21EE000A53
:102A600091ED011A01EE200A81ED010A90ED090AAB
:102A7000B4EEC80AF1EE10FAC8BFFF20E1DDDFE7CF
:102A80008C060020400000209C000020CDCCCC3DD6
:102A90006666663F6800002098000020DB0FC94092
:102AA0001C49D0ED000A1C4A096870EEC00A90ED7E
:102AB000030A91ED061A00EE810A10EE101A80ED5D
:102AC000030A9142C4BF9FED150A80ED030A08DC9A
:102AD00010EE101A124A914228BF9FED120A80EDA3
:102AE000030A9FED111A114920EE010AB0EE001AF7
:102AF00000EE810A10EE100A8842C4BF9FED0C0A56
:102B0000704710EE100A0B49884200D870479FEDBD
:102B10000A0A7047680000202D6F8C3F2D6F8C3F94
:102B20002D6F8CBF2D6F8CBF000096414992A44140
:102B30004992A4414992A4C14992A4C110B44FF052
:102B4000A04C4A68DCF808400023DCF808C144EADD
:102B50000C0C1CF0010F18BF012302D010BC18464A
:102B60007047DFF828C052B10C682243D1E9024116
:102B700021431143826802EA0C02114304E0826897
:102B8000096802EA0C0211438160E7E7E030C0FF08
:102B90004B68D0F808C000221CF0010F18BF0122BA
:102BA00001D0104670475BB1D1E9023C43EA0C0307
:102BB000D0F80CC02CF0047C43EA0C03C36007E09F
:102BC000C368D1F80CC023F0047343EA0C03C3605C
:102BD000D1E900310B43C16C6FF308011943C164A3
:102BE000DFE78368002213F0010F18BF012201D034
:102BF00010467047D1E9003C43EA0C038968D0F8DD
:102C00000CC02CF0180C2CF4404C41EA0C01194378
:102C1000C160EDE730B44B68D0F808C000221CF06A
:102C2000010F18BF012202D030BC10467047002BA4
:102C3000DFF848C00B680ED08C682343D1E9034508
:102C40002C4323434C692343C46804EA0C0C43EA35
:102C50000C03C3600BE0CC682343D1E904452C434B
:102C60002343C46804EA0C0C43EA0C03C3604968BC
:102C7000036B23F00F0319430163D5E71CC0F0FF7A
:102C800010B403680022DB0F18BF012202D010BC71
:102C900010467047D1E9003C43EA0C03D1E902C475
:102CA0004CEA040C096943EA0C0319430368DFF892
:102CB0000CC003EA0C0319430160E8E70F7E00FF34
:102CC00070B4002401F010030125D2F808C0066892
:102CD0009D40B54308BF01245BD0BCF1000F39D043
:102CE000BCF1C00F10D0016840F6FC759D40A943AF
:102CF000156845EA0C0CD5684CEA050C0CFA03FC87
:102D000041EA0C01016033E005684FF0C00C0CFA99
:102D100003FC25EA0C0545EA0C0CC0F800C0D0F80D
:102D200060C040F60F759D402CEA050C156856688A
:102D3000AD08B60845EA06259D404CEA050CC0F8EA
:102D400060C0C1F3C01100EB8101D2F80CC0C1F822
:102D500058C00DE001684FF0FC0C0CFA03FC21EAAE
:102D60000C01D2F800C00CFA03FC41EA0C0101602E
:102D7000C16B4FF0070C0CFA03FC21EA0C01D2E9FD
:102D800004C592694CEA050C4CEA02029A401143D0
:102D9000C163204670BC704770B4684A067A684BBD
:102DA0000025141F0168A3F1040C002E74D0A1B1FA
:102DB000467A76B3012E36D0022E18BF01253BD0BD
:102DC000847A54B15F490A1F012C3DD0022C45D0B2
:102DD000032C18BF45F002054AD04168002971D084
:102DE000427A002A4DD0012A57D0022A18BF45F056
:102DF00004055DD0837A002B64D053490A1F012B50
:102E000061D0022B6AD0032B18BF45F0050571D0A5
:102E100090E0FFE7166826EA010111600168226868
:102E200011432160CCE7266826EA01012160016890
:102E3000146821431160C3E72668314321600168AB
:102E4000146821431160BBE704680E6826EA040495
:102E50000C600168146821431160BEE704681668BD
:102E600026EA0404146002680C6822430A60B4E78E
:102E7000046816683443146002680C6822430A60D0
:102E8000ABE71A6822EA010119604168DCF800200A
:102E90001143CCF80010ADE737E0DCF8002022EA5F
:102EA0000101CCF8001041681A6811431960A1E7CC
:102EB000DCF800201143CCF8001041681A68114377
:102EC000196097E736E04368D1F800C02CEA0303A5
:102ED0000B6040681168084310602BE04368D2F82B
:102EE00000C02CEA0303136040680A6810430860BE
:102EF00020E0FFE74368D2F800C04CEA0303136008
:102F000040680A681043086014E0266826EA010158
:102F100021600168146824EA010111604168DCF84D
:102F2000002022EA0101CCF800104068196821EA6B
:102F300000001860284670BC70470000040401407F
:102F4000240401400C0401402C0401402DE9F0034D
:102F50000A6892FAA2F3B3FA83F3DA407ED001252D
:102F60000F244FF0030C00BF0E6805FA03F2324045
:102F700075D04E68012E18BF022E22D18F68D0F86E
:102F8000088092FAA2F6B6FA86F64FEA46060CFADE
:102F900006F628EA060692FAA2F8B8FA88F84FEA86
:102FA000480807FA08F746EA07068660CF680E6801
:102FB000D0F8048028EA060806FB07F648EA060669
:102FC00046600E69D0F80C8092FAA2F7B7FA87F73C
:102FD0004FEA47070CFA07F728EA070792FAA2F820
:102FE000B8FA88F84FEA480806FA08F647EA0606EB
:102FF000C6604E68022E34D1B2F5807F16D24E697B
:10300000076A92FAA2F8B8FA88F84FEA880804FA30
:1030100008F827EA080792FAA2F8B8FA88F84FEAFF
:10302000880806FA08F63E4306621AE04F69D0F8AF
:103030002480160A96FAA6F9B9FA89F94FEA89099D
:1030400004FA09F996FAA6F6B6FA86F6B60028EA60
:10305000090807FA06F648EA060601E01BE015E053
:1030600046624F68D0F8008092FAA2F6B6FA86F669
:1030700076000CFA06F692FAA2F2B2FA82F2520046
:1030800028EA060607FA02F2324302600A685B1C6D
:10309000DA407FF469AFBDE8F003002070470268B2
:1030A00022F001020260D1E90232D0F800C043EA06
:1030B00002222CF4F85C4CEA020202604A680261C7
:1030C000026842F001020260826822F400428260DB
:1030D0000B698A69D0F808C01A436FF30A0C4CEAEE
:1030E000020282600A691AB1826842F40042826078
:1030F0000A68036823F440131A430260496942686E
:1031000022F400421143416000207047014610B58F
:103110000020C02918BF10BD1A4CD4F8881001F047
:10312000C00141F440014039B1F5400117D04029B8
:1031300019D080291ED001F047FEA168124A01F083
:10314000F0010909515C01F01F01C840A1680F4A54
:10315000C1F30221515C01F01F01C84010BDBDE860
:10316000104001F031BE2168C1F38021002918BF51
:10317000074810BDD4F8901011F0020F18BF4FF49B
:10318000004010BD00100240988C0008A88C000878
:103190000024F40070B5024600204449444D454ED9
:1031A000454C032A13D00C2A43D0302A18BF70BDD7
:1031B000D4F8882002F0300242F44012103AB2F5FE
:1031C000401262D0102A64D0202A68D03FE0D4F8A0
:1031D00088206FF4403302F0030242F44032D218E8
:1031E00053D0012A13D0022A19D001F0EDFDA168B5
:1031F00001F0F0010909695C01F01F01C840A168F4
:10320000C1F3C221715C01F01F01C84070BD22688A
:10321000C2F38022002A08BF70BD084670BDD4F8F2
:10322000901011F0020F08BF70BD00BF4FF40040B6
:1032300070BDD4F8882002F00C0242F44022121F24
:10324000B2F5402221D0042A13D0082A17D001F069
:10325000BBFDA16801F0F0010909695C01F01F01E3
:10326000C840A168C1F30221715C01F01F01C84090
:1032700070BD2268C2F38022002ACED170BDD4F87E
:10328000901011F0020FD1D170BDBDE8704001F077
:103290009BBD2268C2F38022002ABED170BDD4F843
:1032A000901011F0020FC1D170BD00000024F40095
:1032B000988C0008A88C00080010024003680122C6
:1032C00013F0400F31D1D1E900231A43D1E9033C77
:1032D00043EA0C031A434B691A438B691A43CB69BF
:1032E0001A430B6A1A43036823F0BF0323F47F4396
:1032F0001A43026042684B6922F4417222F4406230
:1033000042EA13428B681A4342608A68B2F5006F42
:1033100003D2426842F4805242600A6AB2F5005F0A
:1033200002D1898C89B201610022C16921F4006156
:10333000C1611046704700000149086070470000F5
:10334000040000200A7B8B681A434B6822F48062D9
:103350001A430B6822F400621A43CB8922F480528C
:103360001A430B6922F400521A43CB6A22F48042BA
:103370001A434B6922F470221A438B6922F080525F
:103380001A43A0F18043B3F596331CBFA0F18043EC
:10339000B3F59A330FD14B6A22F470021A43CB690A
:1033A00022F080721A430B6A22F000721A43896A73
:1033B00022F000520A434264002070472DE9F001D8
:1033C0000268234B234CDFF89080DFF890C09842CE
:1033D00018BFB0F1804F04D0A0421CBF40456045EB
:1033E00004D14D6822F0700242EA05021C4D1D4EC8
:1033F0001D4F984218BFB0F1804F0BD0A04218BFAC
:10340000404507D0604518BFA84203D0B04218BF5E
:10341000B84204D1CC6822F4407242EA040202604D
:103420008A68C2620A888262984218BF604504D0E6
:10343000A8421CBFB042B84201D109690163416989
:1034400041F001014161BDE8F0014FF0000070471B
:10345000002C0140000400400008004000340140FE
:103460000040014000440140004801402DE9F007C0
:103470000023DFF838C3CE4CCE4DCF4ECF4F4FF0A8
:103480000108B1F5805F00F0E08008DC012910D070
:10349000102952D0B1F5807F7ED000F083B9B1F50C
:1034A000803F00F01781B1F5801F00F0488100F0E7
:1034B00079B9016A21F001010162016AD0F8048042
:1034C000D0F81890D2F800A029F0730929F48039B7
:1034D00049EA0A09D2F810A021F0020141EA0A01E2
:1034E000D2F804A021F0010141EA0A01604518BFA9
:1034F000A04204D0A8421CBFB042B84215D1D2F8B5
:1035000014C021F0080141EA8C01D2F808C021F072
:10351000040141EA8C01946928F4807C4CEA040C93
:10352000D4692CF4007C4CEA4408C0F80480C0F84C
:103530001890D268426300F033B9016A21F010019B
:103540000162D0F820804168D0F81890D2F800A02D
:1035500029F4E64929F0807949EA0A29D2F810A02D
:1035600028F0200848EA0A18D2F804A028F0100829
:1035700048EA0A18604518BFA04204D0A8421CBF00
:10358000B042B84217D1546928F0800C4CEA841C30
:103590002CF0400C946800E013E04CEA8418D2F858
:1035A00018C021F4806141EA8C01D2F81CC021F4DA
:1035B000006141EACC014160C0F81890D168816394
:1035C00040E0016A21F480710162D0F820804168F6
:1035D000D0F81C90D2F800A029F0730929F48039A2
:1035E00049EA0A09D2F810A028F4007848EA0A2823
:1035F000D2F804A028F4807848EA0A28604518BF69
:10360000A04204D0A8421CBFB042B84215D15469B0
:1036100028F4006C4CEA842C94682CF4806C4CEAFE
:103620008428D2F818C021F4805141EA0C11D2F854
:103630001CC021F4005141EA4C114160C0F81C90BB
:10364000D168C163C0F82080ABE0016A21F48051E9
:103650000162D0F820804168D0F81C90D2F800A018
:1036600029F4E64929F0807949EA0A29D2F810A01C
:1036700028F4005848EA0A38D2F804A028F4805800
:1036800048EA0A38604518BFA04204D0A8421CBFCF
:10369000B042B84215D1546928F4004C4CEA843C3D
:1036A00094682CF4804C4CEA8438D2F818C021F489
:1036B000804141EA8C11D2F81CC021F4004141EA5A
:1036C000CC114160C0F81C90D1680164C0F8208022
:1036D000984667E0016A21F480310162D0F82080C9
:1036E000016DD2F8009021F0700121F4803141EA9F
:1036F0000901B2F8109028F4003848EA0948B2F8F5
:10370000049028F4803848EA0948604518BFA04270
:1037100004D0A8421CBFB042B84208D1D0F804C0BF
:1037200094692CF4803C4CEA042CC0F804C0016578
:10373000D168826C8164C0F82080984632E0016ACA
:1037400021F480110162016AD0F85080D2F8009013
:1037500028F4E04828F0807848EA0928B2F8109068
:1037600021F4001141EA0951B2F8049021F48011CA
:1037700041EA0951604518BFA04204D0A8421CBFCD
:10378000B042B84208D1D0F804C094692CF4802C1F
:103790004CEA842CC0F804C0C0F85080D268C264DF
:1037A000016298464046BDE8F0077047002C014092
:1037B0000034014000400140004401400048014005
:1037C00070B5044600680D46012610F0010F5CD16B
:1037D0002969A868EA6908436969114308432168AF
:1037E000314A114008432060E868616821F4405183
:1037F00008436060A869A16821F440710843A06093
:10380000A4F18040B0F59C3013D0A4F18040B0F515
:10381000884008BF0C2010D0A4F18040B0F5904043
:1038200008BF302009D0A4F18040B0F5984007D0FF
:1038300024E00320FFF7AEFC05E0FFF7ABFC02E05D
:10384000C020FFF763FC00281CBF6968002915D061
:103850002A68EB694FF000060B2A0FD8DFF84CC03E
:10386000D2B2B3F5004F5CF82220B0FBF2F00ED0DC
:1038700000EB5100B0FBF1F080B2E0602888E16A13
:1038800080B221F00F010843E062304670BD400075
:1038900000EB5100B0FBF1F080B24FF6F071014047
:1038A000C0F342000843E8E7F369FFEFC090000867
:1038B000F0EE400A90ED000A90ED041AD0ED011AE6
:1038C00090ED052A20EE010A01EE820AD0ED021ADF
:1038D00090ED062A01EEA00AD0ED031A80ED051A3C
:1038E00001EE820A80ED040AC0ED060A704700006E
:1038F00080EC040A9FED040A80ED060A80ED050ABB
:1039000080ED040A704700000000000010B5144666
:103910002DED028B94ED040AD4ED000AD4ED021AC9
:1039200091ED001A20EE202AD4ED050AD4ED062AE6
:103930003B4A00EEA12A126892ED068A00EEC12AE7
:1039400090ED001A02EE812A84ED002A94ED011A0E
:1039500091ED013A20EE010A94ED031A00EE810A7E
:1039600000EEC30AD0ED010A02EEA00A84ED010ABE
:10397000D0ED000A72EE600A94ED072A42EE201A9A
:10398000D4ED0C0A60EE880A40EE811AC4ED021AEA
:10399000D0ED012A30EE620A02EE001A00EEE11AC2
:1039A00084ED031A94ED0D0AFCF75EFE94ED031A04
:1039B0001C4961EE200A94ED021A41EE400A94ED92
:1039C0000A0A08EE200A84ED0A0A94ED091A20EE8C
:1039D000011A94ED080A00EE801A84ED0C1A94ED99
:1039E0000B0A01EE080A10EE100A84ED0B0A884259
:1039F00006DDDFED0D0A30EE200A84ED0B0A0AE049
:103A000010EE100A0949884205D9DFED090A30EEA7
:103A1000200A84ED0B0A84ED0D0ABDEC028B10BD6B
:103A200068000020DB0F4940DB0FC9C0DB0F49C035
:103A3000DB0FC9402DE9F041924D04462DED048B7A
:103A4000D5ED008ADFED900A95ED011A68EEA00A27
:103A5000DFED8E1A41EE610A9FED8D1AD5ED021A47
:103A6000C5ED018A40EE010A41EEC10AC5ED000A2A
:103A700085ED020A90ED020AD0ED000A9FED858ADD
:103A80008548864F60EE880A0068DFF8148290ED62
:103A9000061A00EE810A10EE100A84ED020AB842FE
:103AA000C8BF30EE480A06DC10EE100A404588BF59
:103AB00030EE080A01D984ED020AD4ED040A30EE92
:103AC000200A10EE100AB842C8BF30EE480A05DCE2
:103AD00010EE100A404588BF30EE080AFCF7C4FD1E
:103AE00094ED031A6F4821EE000A61EE200A84ED7E
:103AF000050AC4ED060A20EE280A60EEA80A84ED45
:103B0000070AC4ED080A90ED000ADFED672A00F10C
:103B1000080120EE220AD1ED000ADFED641A00F15F
:103B2000100200EEE10AD2ED000A9FED612A00EEDC
:103B3000820AD4ED070A9FED5F1AA0F1080300F195
:103B40001806B7EE009A00EE810A83ED000AC2ED76
:103B5000000A80ED000A81ED000AD0ED010A60EE56
:103B6000A20AD1ED012A42EEE10AD2ED011A41EE9C
:103B7000820AD4ED081A41EE810AC3ED010AC2EDB2
:103B8000011AC0ED010AC1ED010A84ED090AC4ED74
:103B90000A0A96ED001A00EE001A86ED001A96ED5C
:103BA000010A00EEA00A86ED010A95ED030A70EE07
:103BB000090A81EE200AFDF783FEF0EE408A95EDBA
:103BC000030AD6ED010A30EE091A80EE810AFDF7EC
:103BD00077FEF0EE400A95ED030A30EE090A85ED16
:103BE000030A28EEA80AC4ED0B8AC4ED0C0A00EE05
:103BF000A00AFDF765FEF0EE000A60EE208AD4ED23
:103C00000B0A94ED0C0A03F03BFAD4ED010A9FED88
:103C10002A1A2B4960EE810A80EEA81ADFED270AE6
:103C200061EE208A18EE900A8842C8BFDFED258A2F
:103C3000B1EE400A10EE100AB842C8BF30EE480A92
:103C400005DC10EE100A404588BF30EE080AFCF78C
:103C50000BFD60EEA80A20EE280A9FED1B1AC4EDAA
:103C60000F0AFEEE000A60EE200A80EE810AD4ED13
:103C7000000A80EE201A84ED101ABDEC048BBDE81A
:103C8000F081000008000020AC1CFA3FF016783FDD
:103C900024B9FC3CDB0FC94068000020DB0F494021
:103CA000DB0F49C020000020355EFA3F2FDD743F56
:103CB000A9E8FE39B72FFB39AAF1A23F2368D03F0C
:103CC0000000204100000000DB0F49402DE9F041D9
:103CD00098B00024169414941594079408940994A9
:103CE00006940A9411941294139499480B940C948A
:103CF0000D940E940F9410940294039404940594DC
:103D000050F8881F032621F0405141F0005102274E
:103D100040F83C19016841F400510160016801F468
:103D200000511791016841F004010160016801F040
:103D300004011791016841F0020101600068854D9E
:103D400000F00200CDE90076179069462846FFF79B
:103D5000FDF80420CDE90006694604942846FFF7E3
:103D6000F5F80125DFF8F081CDE9005669464046B7
:103D70000494FFF7EBF8CDE90076694640460494D9
:103D8000FFF7E4F875480068C0F30220C0F10701AE
:103D9000042988BF0421021D072A34BF0020C01E49
:103DA00005FA01F1491E01F0050101FA00F06C4924
:103DB000000181F800044FF0E0214FF48020C1F8A9
:103DC0000001C010CDE9144014A94FF0A040169492
:103DD000FEF707FFCDE90645089409940A9406A961
:103DE0004FF0A0400B94FEF715FF4FF0A045D5F81B
:103DF000C0006FF30D00C5F8C000286920F48030C2
:103E00002861286920F0030020F4806028614FF4C5
:103E10004030CDE91004534E10A93046FEF78EFE17
:103E200080200C90CDE90D740CA928460F94FEF764
:103E3000AFFEE86820F4001020F0004040F00040A1
:103E4000E860E86C20F4C07040F08000E864A86886
:103E500020F03F0020F02040A860A86820F03F003C
:103E600020F0004040F08050A8603F483F49006883
:103E7000B0FBF1F000EB80003D498000A1FB001099
:103E8000C10802D0B1F1004F5ED23A49086820F46F
:103E9000F86040F4407008603748026822F4E0722D
:103EA00042F040020260D5F8B02022F48052C5F8FA
:103EB000B020EA6C22F4785242F46062EA64021F95
:103EC000136823F460031360D5F8B03023F0800347
:103ED000C5F8B0300B6823F4F83343F490330B602B
:103EE000016821F0E0610160D5F8B01021F4802173
:103EF000C5F8B010B1681B4B21F0E07141F48001AE
:103F00009960E96C21F4782141F48021E964116819
:103F100021F0E0611160D5F8B01021F48071C5F88E
:103F2000B010E96C21F0787141F0F071E96401683A
:103F300021F460310160D5F8B00020F40040C5F8EC
:103F4000B00018B0BDE8F081491EFDD19DE700002A
:103F50000010024000080048000400480CED00E09A
:103F600012E000E00003005004000020400D0300B8
:103F7000CDCCCCCC30000050180000502DE9F04FD3
:103F8000A1B000241E941B941494129413941594BD
:103F90001694199417941894069407940A94089404
:103FA00009940B940C940F94A84E0D940E941094B5
:103FB0001194009401940294039404940594306E37
:103FC00040F400603066306EA14D00F400601A903D
:103FD00040201C9042F233101D9001201F90ADF83C
:103FE0006C401BA92846FFF7E9F9286820F08000FB
:103FF0002860A86820F0070020F4A030A860DFF84F
:1040000054B295489BF800100F1838680BF10A0954
:104010004FF0080A99F800100AFA01F108433860D5
:104020007020CDE9120414941594169417941894E2
:1040300012AA012128461994FFF718FA386899F84E
:1040400000104FF0040808FA01F1884338609BF82B
:10405000021081480F18386899F802100AFA01F125
:104060000843386012AA10212846FFF7FFF9386884
:1040700099F8021008FA01F1884338609BF804109F
:1040800075480F18386899F804100AFA01F10843C6
:10409000386012AAA9152846FFF7E8F9386899F898
:1040A000041008FA01F188433860686820F0700055
:1040B00020F0007040F020006860686820F4700014
:1040C0006860A86820F08000A8606449086898FAD1
:1040D000A8F2B2FA82F202F01F024F1507FA02F2BA
:1040E000904398FAA8F2B2FA82F202F01F0204FAA0
:1040F00002F210430860086840F004000860086895
:104100009AFAAAF2B2FA82F202F01F0207FA02F257
:1041100090439AFAAAF2B2FA82F202F01F0204FA6B
:1041200002F210430860086840F0080008600A685E
:10413000102090FAA0F3B3FA83F390FAA0F003F002
:104140001F03B0FA80F007FA03F300F01F009A4350
:1041500004FA00F010430860086840F0100008609E
:1041600088148DF82440ADF826004FF400590694C9
:10417000079408948001CDF82890CDE90B048001C4
:104180000D904000CDE90E04109406A92846119424
:10419000FFF7D8F8F06C40F00200F064F06C00F02B
:1041A00002001A90F06C40F00100F064F06CCDF861
:1041B000009000F001001A900225CDE90154062676
:1041C000DFF89C90CDE90446694648460394FEF723
:1041D000BDFE68030090CDE90154CDE9044669466F
:1041E00048460394FEF7B2FEA8030090CDE90154BF
:1041F000CDE90448694648460394FEF7A7FEE80166
:104200000090CDE90154CDE9044669464FF0904055
:104210000394FEF79BFE0097CDE90154CDE90446D7
:1042200069464FF090400394FEF790FE68020090BC
:10423000CDE90154CDE9044669464FF0904003941E
:10424000FEF784FE21B0BDE8F08F000000100240B0
:10425000002C0140708C0008182C0140602C01409B
:104260000004004810B500221049114801F0A4FBD9
:10427000002818BFFCF732FA0E490D4801F0D3FDB3
:10428000002818BFFCF72AFA0B49094801F028FA60
:10429000002818BFFCF722FA054801F0E1FD0028CC
:1042A00008BF10BDBDE81040FCF718BAF8000020A8
:1042B0007C1300203C0200204C01002010B49FED34
:1042C000170A03293CBF10BC70474FF0000C4C1E6E
:1042D000002C1BDDA1EB0C035A1E002AC4BF0246B2
:1042E0005B1E0FDD92ED000AD2ED010AB4EEE00A8A
:1042F000F1EE10FAC4BFC2ED000A82ED010A121DF0
:104300005B1EEFD10CF1010C6445E3DC490800EBC6
:10431000810090ED000A10BC704700000000000012
:10432000FEE7FEE710B547480C462DED0C8B0E99C5
:10433000006894ED031A91ED009A90ED040AD0ED17
:10434000061AD1ED018A69EE000A90ED038A28EE83
:10435000800A3D4871EE600A94ED041A94ED002A3B
:10436000006831EE400A80EEA1CA20EEA01A60EE8D
:10437000822AD0ED069A93ED00BA00EE001AD3ED32
:1043800001AA20EE022A11EEA11AC0EE21CA84ED84
:1043900006CA22EE81AA62EE01BAC4ED05CA90ED0A
:1043A00006DA94ED0D0AFCF75FF960EEAC0A2749D6
:1043B0004CEE400AC4ED070A94ED0C0A00EE8D0A9B
:1043C00084ED0C0A94ED091A20EE011A94ED080A06
:1043D00000EE201A84ED0A1A94ED0D0A01EE0D0A82
:1043E00010EE100A84ED0D0A884206DDDFED180A92
:1043F00030EE200A84ED0D0A0AE010EE100A15498D
:10440000884205D9DFED140A30EE200A84ED0D0A4A
:1044100009EE48AA84ED0B0A94ED030A48EEC8BAE7
:104420007AEE0B0A00EEA90A7BEEAA0A84ED030AD3
:1044300094ED040A00EEA90A84ED040ABDEC0C8B8D
:1044400010BD00009800002068000020DB0F4940EC
:10445000DB0FC9C0DB0F49C0DB0FC9402DE9F05F9E
:1044600005460068B0F8440010F4004F00F02484C2
:1044700040F2024940F2064800272868B0F844108C
:1044800011F00F0A46D030F82A6016F4004F00F001
:10449000B08130F82A1021F0700121F4704141F010
:1044A000800120F82A100AEB8A0005EBC00000F515
:1044B000A87490F85C01002800F0F180E0780228F0
:1044C00000F000812178286830F8212048F2C003EC
:1044D00022F0700222F4E0421A4320F821202178D1
:1044E000286830F8212012F4804FB0F850200244A0
:1044F00000F05E8109EBC101515AC1F3090BBBF118
:10450000000F00F0628122895B46616902F04FFD75
:1045100000F05BB911F0100F23D0018805F5A874E5
:1045200011F4006F4AD0B0F850100144207808EB25
:10453000C000085A05F52671C0F30903E361E2885B
:10454000286802F034FD2968088820F0700020F403
:10455000704040F0800008802846FDF71EFD00F006
:10456000A4BB018821F0F00121F4E04141F40041B5
:104570000180286805F11004B0F850100144287C2F
:1045800009EBC000085AC0F30900E862696A0844F0
:10459000686200212846FDF795FA287B002800F084
:1045A0008483A069002840F08083287B296840F03C
:1045B0008000A1F84C002F7300F077BB11F4004F7E
:1045C00000F07383018821F0700121F4704141F003
:1045D000800101802868B0F850100844217808EB69
:1045E000C101405A83059B0DE3611CBF616900292D
:1045F0000BD0E288286802F0DAFCE16960690844BF
:10460000606100212846FDF766FA2968088810F4E1
:10461000006F40F04A834FF4405232EA000000F04D
:104620004483B1F850004218B2F80604C0F3090000
:10463000A2F80604216902F206423E290CD9480973
:1046400011F01F0F08BF401E13884FF4004141EACC
:1046500080201843108013E0002904BF108840F424
:1046600000400CD04FEA510011F0010F18BF401C60
:1046700013884FF6FF7101EA802043EA00001080A2
:104680002868018848F2800221F0700121F48041FD
:1046900081F4405141EA0201018000F006BB286824
:1046A000B0F850102278014408EBC202895AC1F3D5
:1046B000090BBBF1000F43D0E2885B46616902F051
:1046C00076FC82E0286816F4804FB0F85010084459
:1046D000217836D009EBC101405AC0F3090BA0691B
:1046E000834588BFA76103D8B0EB0B00A0610ED152
:1046F0002078296831F8202048F2800322F07002E7
:1047000022F4804282F400521A4321F8202016F04D
:10471000400F0CD02178286830F8212048F2C003DF
:1047200022F0700222F4E0421A4320F82120BBF16B
:10473000000F4AD0228961695B46286802F037FC85
:1047400043E008EBC101405AC0F3090BA06958458A
:1047500038BFA76103D3B0EB0B00A0610ED1207866
:10476000296831F8202048F2800322F0700222F4F8
:10477000804282F400521A4321F8202016F0400FA4
:104780000CD12278286830F8221048F2C00321F0BA
:10479000700121F4E041194320F82210BBF1000F11
:1047A00013D0628961695B46286802F000FC0CE066
:1047B00008EBC101515AC1F3090BBBF1000F04D042
:1047C00062895B46616902F0F2FBE0695844E0618E
:1047D000606958446061A06910B12069584504D9E6
:1047E00021782846FDF777F903E02146286802F092
:1047F0004FF816F0800F00F058820AEB8A00296803
:1048000005EBC00000F1100431F82A0020F0F000A0
:1048100020F4E04040F4004021F82A00E07801282C
:104820002FD016F4807F78D0286816F0400FB0F8AB
:10483000501000F052810144207809EBC000085A62
:10484000C0F30901A069884298BFA7617ED9401AC8
:10485000A0617BD016F4804F0DD020782A6832F802
:1048600020304CF2800C23F0700323F4E04343EA41
:104870000C0322F8203094F82400012867D000F0BF
:1048800005BAA761207B20B316F0400F22D06078D4
:1048900010B1012814D061E02868B0F85010084425
:1048A000217800EBC100B0F80214C1F30901A0F8AF
:1048B0000214B0F8021441F40041A0F802144DE0D3
:1048C0002868B0F850100844217800EBC100A0F827
:1048D000027443E06178286811B1012914D03DE0E9
:1048E000B0F850100844217800EBC100B0F806146D
:1048F000C1F30901A0F80614B0F8061441F4004110
:10490000A0F806142AE008E0B0F850100844217816
:1049100000EBC100A0F8067420E02868B0F8501041
:104920000144207809EBC000085AA169C0F30900CE
:10493000814298BFA76111D9091AA1610ED061699E
:1049400001446161E1690844E06101E00CE065E077
:104950002146286801F09CFF00F0A7B9217828467D
:10496000FDF7B0F800F0A1B9607810B1012814D0BB
:104970001CE02868B0F850100844217800EBC10012
:10498000B0F80214C1F30901A0F80214B0F802143F
:1049900041F40041A0F8021408E02868B0F8501073
:1049A0000844217800EBC100A0F8027461782868FF
:1049B00011B1012913D01AE0B0F850100844217841
:1049C00000EBC100B0F80614C1F30901A0F8061409
:1049D000B0F8061441F40041A0F8061407E0B0F85E
:1049E00050100844217800EBC100A0F8067421782B
:1049F0002846FDF767F816F4804F00F047812178CC
:104A0000286830F8212022F0700323F4E0434CF2B0
:104A100080021A4320F8212000F038B96069084468
:104A20006061E0690844E0612369206A984224BF1C
:104A3000C01A206207D2002808BF0B4684F82470F1
:104A40001CBF03462762607810B1012835D03DE0D5
:104A50002868B0F850100844217800EBC100B0F885
:104A60000214C1F30901A0F8021400F202403E2B27
:104A70000ED9590913F01F0F08BF491EB0F800C026
:104A80004FF4004242EA81214CEA010101801DE01D
:104A9000002B04BF018841F40041F7D05A0813F0FD
:104AA000010F18BF521CB0F800C04FF6FF7101EAA9
:104AB00082214CEA0101018008E02868B0F850101A
:104AC0000844217800EBC100A0F802349BB222898F
:104AD0006169286802F088FAD8E00844217808EB78
:104AE000C101405AA169C0F30900814238BFA761E2
:104AF00006D3091AA16103D016F4804F58D065E09F
:104B0000607810B1012814D01CE02868B0F850106B
:104B10000844217800EBC100B0F80214C1F3090188
:104B2000A0F80214B0F8021441F40041A0F80214F5
:104B300008E02868B0F850100844217800EBC10064
:104B4000A0F802746178286811B1012913D01AE025
:104B5000B0F850100844217800EBC100B0F80614FA
:104B6000C1F30901A0F80614B0F8061441F400419D
:104B7000A0F8061407E0B0F850100844217800EBC4
:104B8000C100A0F8067421782846FCF79BFF16F4B4
:104B9000804F7BD120782A6832F820104CF28003B5
:104BA00021F0700121F4E041194322F820106DE05A
:104BB0002278296831F8223023F0700C2CF4E04C74
:104BC0004CF280034CEA030321F8223094F82410BD
:104BD00001295BD1616901446161E1690144E161DD
:104BE0002269216A914208D31046091A216262782B
:104BF00029684AB1012A3BD042E000291CBF08467F
:104C0000276284F82470F2E7B1F85020114422782A
:104C100001EBC202B2F80614C1F30901A2F80614AE
:104C200002F206423E280ED9410910F01F0F08BFBC
:104C3000491EB2F800C04FF4004343EA81214CEA18
:104C4000010111801CE0002804BF118841F40041DB
:104C5000F7D0410810F0010F18BF491CB2F800C08E
:104C60004FF6FF7303EA81214CEA0101118007E04E
:104C7000B1F850201144227801EBC201A1F80604DA
:104C800083B262896169286802F0AEF921782A68E6
:104C900032F8210020F4415020F4804080F03003AD
:104CA00048F28000184322F821002868B0F8440038
:104CB00010F4004F7FF4E1AB0020BDE8F09F704797
:104CC00070B5FDF7ADFD3C4C3C48216881ED0F0A05
:104CD000C1ED100A006890F90820042A06D0022AC3
:104CE00004BF90F82020002A46D060E091ED0D1A14
:104CF00030EE410A81ED0F0A91ED0E0A30EEC00A46
:104D000081ED100A007C09281DD2DFE800F0051CA7
:104D1000080B0E1114171A00FCF738FA13E0FCF711
:104D20001DFD10E0FCF738FB0DE0FCF7E5FB0AE0A9
:104D3000FBF7DCFE07E0FCF71FF804E0FBF7D0FC14
:104D400001E0FBF7EDFD20681D4D00F1240128680E
:104D50000830FBF790FC286880ED040AC0ED050AD6
:104D6000216891ED0B0A00F051F92868828C418C82
:104D7000008CFDF7FBFC1AE04268521C4260652A79
:104D800010D0104B91ED0F0A03EB820282ED000A66
:104D900091ED100A406803F5C87101EB800080EDC9
:104DA000000A04E000214160012180F82010BDE8E4
:104DB0007040FDF7CBBB0000A00000206800002081
:104DC00094000020000300201549886800F00C03BF
:104DD0001448042B08BF7047134A082B04BF104621
:104DE00070470C2B18BF7047CB6803F00303022BEE
:104DF00002D0032B08BF1046CA68C2F30622424302
:104E0000C868012300F0F00003EB1010B2FBF0F0D3
:104E1000C968C1F34161491C4900B0FBF1F070471A
:104E2000001002400024F40000127A0002F0F0B8F2
:104E3000704700002DE9F05F694CDFF8A8A100255C
:104E40002DED028B4FF002082068674F674E90F9F6
:104E500008104FF00109491C05296AD2DFE801F06A
:104E6000030A33496000FDF7B5FC03F09FFC20689E
:104E70000572A7E0FDF7E0FAD7E90401B0EE408A39
:104E80000A220023FBF738FA0AEB82000A2180EDA0
:104E9000008A5448FFF712FA3068554980ED0B0A32
:104EA00010EE100A084453498142206898BF0560FB
:104EB0003FD901684A1C0260322984BF056080F82E
:104EC000089036D97EE001684A1C0260322904D974
:104ED0004560056080F8088074E02D2A72D9464844
:104EE0000068C06902461146FDF740FCFDF74CFC26
:104EF0001FE090F82000002864D064213F48FFF7AD
:104F0000DDF93068642180ED0D0A3D48FFF7D6F9E0
:104F10003068032180ED0E0A20680560017251E0BF
:104F2000FDF7F8FA28B1FDF72FFC2168042008727C
:104F300003E02068007A042844D1FDF7EBFA4FF033
:104F4000FF3B002804BF206880F808B0FDF774FA22
:104F5000D7E90401B0EE408A0A220023FBF7CCF91E
:104F60000AEB82000A2180ED008A1E48FFF7A6F9AD
:104F70003068244980ED0B0A10EE100A88420CDAE2
:104F8000206801684A1C02608C291BD9FDF722FCAD
:104F90002068056080F8098012E010EE100A1A49B6
:104FA00088422068D8BF05600CDD01684A1C026099
:104FB0008C2907D9FDF70EFC2068056080F8099060
:104FC00080F808B0D7E90401401C41F10001C7E9AD
:104FD0000401BDEC028BBDE8F05FFDF7E1BA000013
:104FE000680000202006002050000020A0000020C3
:104FF00032330BBECBCC30009400002000030020E5
:1050000090040020CDCCF44167666642884990ED5B
:10501000042AD0ED050A0968D1ED062A00219FED8A
:10502000851AB6EE003A22EE011AF0EE411A00EEB1
:10503000C31AB0EE414A9FED801A22EE012AF0EE2B
:10504000423A00EEC32A9FED7D1AF5EEC00A012216
:1050500062EE814A84EE801AF1EE10FAC8BF012197
:10506000B0EE440AB5EEC00AF1EE10FAC8BF891CD2
:10507000B5EEC02AF1EE10FAC8BF091DB5EE002A40
:1050800007297CD2DFE801F09B041E3449637F00CE
:1050900040EE833A40EE831A022180F8261023EE78
:1050A000810A21EE811A72EEC01A32EE800A71EE88
:1050B000810A30EE010A31EEC11A60EE820A20EE5A
:1050C000020A41E040EE831A062180F8261021EE04
:1050D000810A21EE601A72EE800A72EEC01A70EE3A
:1050E000810A31EEC10A60EE820A20EE020A29E04E
:1050F00024EE010A21EE201A80F8262072EE800AA2
:1051000072EEC01A70EE810A31EE810A31EEC11AD8
:1051100060EE820A20EE020A16E040EE833A61EE6B
:10512000601A042180F8261032EEE10A23EE811A7B
:1051300072EEA11A70EE410A30EE010A60EE820AA8
:1051400020EE020A31EE811A21EE021A3DE040EE15
:10515000831A21EE200A032180F8261021EE611A1D
:1051600072EEC01A32EE800A71EEC10A30EE010A08
:1051700031EE811A60EE820A20EE020A00E01EE0A3
:1051800021EE021A21E040EE831A40EE833A052117
:1051900080F8261061EE611A21EE631A32EEE10A00
:1051A00072EEA11A70EE010A30EE410A31EE811A58
:1051B00060EE820A20EE020A21EE021A05E022EEDB
:1051C000820AF0EE400AB0EE401AD0ED061A21EE47
:1051D000800A61EEA00ABDEEC00AFDEEE00A10EE04
:1051E000102A21EE810A10EE903ABDEEC00A002B83
:1051F00010EE101AB8BF002304DBD0F81CC09C4589
:1052000038BF6346002AB8BF002204DBD0F81CC0B8
:10521000944538BF62460029B8BF002104DBD0F8AE
:105220001CC08C4538BF614603844284818470472A
:1052300068000020D7B35D3FD7B35DBFD7B3DD3F74
:105240001D49D0ED000A1D4A096870EEC00A90EDB4
:10525000030A91ED051A00EE810A10EE101A80ED96
:10526000030A9142C4BF9FED160A80ED030A08DCD1
:1052700010EE101A134A914228BF9FED130A80EDD9
:10528000030A9FED121A134A20EE010A9FED101A2D
:1052900000EE810A10EE101A9142C8BF9FED0E0A6F
:1052A00004DC10EE101A0D4A914202D880ED040A77
:1052B00070479FED0B0AF9E76800002000008A4262
:1052C00000008A4200008AC200008AC2CDCCCC3DD8
:1052D0000AD7233CCDCCDC40CDCCDC40CDCCDCC0EF
:1052E000CDCCDCC010B5FFF7A5FDBDE81040FCF744
:1052F000E9BA0000384810B5016821F00F0141F00B
:1053000004010160016801F00F010429FAD133485A
:1053100050F8801F21F4807101603148016841F428
:10532000803101600168C1F340410029FAD0D0F812
:10533000981041F00101C0F8981000BFD0F8981003
:1053400011F0020FFAD0C26845F21351254B1A40F2
:105350001143C160C16841F08071C160016841F0D2
:10536000807101600168C1F340610029FAD0816851
:1053700041F003018160816821F0F00141F080017A
:105380008160816801F00C010C29FAD116490A6884
:1053900042F080720A6015490A6842F001020A6010
:1053A00000224A604A68642AFCD3816821F0F00137
:1053B0008160816821F4E0618160816821F460513D
:1053C00081600B48FDF7B8FF0620FCF793FA002830
:1053D00008BF10BD72B6FEE700200240007000401A
:1053E000001002400C80FFF9FCED00E0001000E02E
:1053F00080FE210A0248016841F470010160704793
:1054000088ED00E010B50A46024903A000F0A0FABA
:10541000004810BD4C16002043444320436F6E6685
:1054200069670000D0F8BC32D0F8C422002B04BF5A
:105430000320704770B501EB810500EB8504002661
:10544000D4F818C0BCF1000F07D002EBC502126AF5
:10545000BCFBF2F502FB15C282B1C3F81462D0F8AE
:10546000C002D0F810C0BCF1000F05D00A4603F509
:105470000471D3F80802E047002070BD00231A46EB
:10548000A66100F0A7FCF7E770B5D0F8BC4205466E
:10549000002C04BF032070BD00F05BFBC4F80C02BD
:1054A000D5F8C012D4F80402CA6804F50371904715
:1054B000002070BD70B50446812100F0A4FA0025DB
:1054C00025870121204600F09EFAA4F87851822118
:1054D000204600F098FAA4F84C50A4F84E50D4F8A6
:1054E000BC0248B1D4F8C00240688047D4F8BC027E
:1054F00000F016FFC4F8BC52002070BD12200880D6
:10550000004870471C01002010B5D0F8BC42002CA8
:1055100004BF032010BDD0F8C01200291CBF94F8AE
:105520000002FF2807D08B6894F801222146984793
:10553000FF2084F80002002010BD00000A21018035
:1055400000487047640100204321018000487047F3
:10555000B401002043210180004870477001002001
:105560004321018000487047F80100202DE9F041F7
:1055700004464FF4077000F0D5FE05004FF0000719
:1055800002BFC4F8BC720220BDE8F081C4F8BC526E
:10559000207C4FF01008012660B3402302228121B5
:1055A000204600F030FB26874023022201212046BE
:1055B00000F029FBA4F87861A4F84E8008230322A8
:1055C0008221204600F01FFBA4F84C60D4F8C002F2
:1055D00000688047C5F81472C5F81872207CD5F8A9
:1055E0000422D8B140230121204600F021FB0020F5
:1055F000BDE8F0814FF4007302228121204600F0C3
:1056000002FB26874FF4007302220121204600F09E
:10561000FAFAA4F87861A4F84E80CFE74FF400734B
:105620000121204600F004FBE1E7000010B50A4626
:10563000024903A000F08CF9004810BD4C16002070
:1056400043444320496E74657266616365000000DF
:1056500004200880004870471801002010B50A4651
:10566000024903A000F074F9004810BD4C16002058
:1056700053544D6963726F656C656374726F6E69C4
:105680006373000010B50A46024903A000F060F9F8
:10569000004810BD4C16002053544D33322056693B
:1056A000727475616C20436F6D506F7274000000EE
:1056B00010B5D0F8BC12002904BF032010BD027C35
:1056C000002AD1F8042205D04023012100F0B0FACD
:1056D000002010BD4FF40073012100F0A9FAF7E794
:1056E00000290EBF0320C0F8C01200207047000040
:1056F0002DE9F0011A2008801A481C4A1A4900684E
:1057000012680968801829D0194F0823BA1C0A2486
:10571000302537264FF0000CB4EB107F8CBF05EB23
:10572000107806EB107882F8008082F801C0000142
:10573000921C5B1E04BF07F112000422ECD100BFD3
:10574000B4EB117F8CBF05EB117306EB1173037083
:1057500080F801C00901801C521EF1D1BDE8F001A2
:10576000034870479075FF1F9475FF1F9875FF1FC2
:1057700030010020D0F8BC0200280EBF0320C0F882
:10578000041200207047D0F8BC02002804BF032098
:105790007047C0F81022C0F8081200207047F0B51A
:1057A0000546D0F8BC72002083B00C468DF800008E
:1057B000ADF804000646002F02BF032003B0F0BD81
:1057C000207810F0600128D0202941D1E288E2B190
:1057D00010F0800F60780DD0D5F8C0128B68394674
:1057E0009847E288072A88BF07223946284600F0F2
:1057F00096F832E087F80002A07987F80102E28883
:105800003946284600F071F827E0D5F8C0126078D4
:1058100000228B68214698471FE0607850B101282C
:105820001BD00A2810D00B2804BF95F89C0203282F
:1058300013D00DE095F89C02032809D1022201A99A
:10584000284600F06CF808E095F89C02032807D081
:105850002146284600F03EF8032603B03046F0BD4E
:1058600001226946284600F05AF8F6E710B5D0F84C
:10587000BC120122002904BF032010BDD1F814324C
:105880006BB90122C1F81422D1F81022C262D1F8FA
:105890001032D1F80822812100F09CFA0022104633
:1058A00010BD10B5D0F8B822002A1CBF526890472E
:1058B000002010BD134610B50A46002100F0B8F9CB
:1058C000002010BD134610B50A46002100F082FAF0
:1058D000002010BD10B50446802100F04EFA20468D
:1058E000BDE81040002100F048BA10B50323C0F80D
:1058F0009432C0F858211346C0F85C210A460021B2
:1059000000F096F9002010BD10B50521C0F89412E2
:1059100000231A46194600F08BF9002010BD10B57F
:105920000223C0F8943282611346C2610A46002104
:1059300000F050FA002010BD10B50421C0F89412F8
:1059400000231A46194600F045FA002010BD000059
:1059500030B40025002804BF30BC70474FF0000C65
:105960000478034644B100BF13F8014F0CF1010C59
:105970000CF0FF0C002CF7D1022303EB4C03138037
:1059800012784A556A1C03238B540378AA1C002BF7
:1059900012BF002330BC704710F801CB01F802C0E1
:1059A000521CD2B28B54521C90F800C0D2B2BCF13F
:1059B000000FF1D130BC7047002804BF03207047AE
:1059C0000023C0F8B832C0F8C032C0F8CC32002989
:1059D00018BFC0F8B412012180F89C12027000F0C8
:1059E000BDB810B5D0F8C402FCF7A5F801004FF01F
:1059F000000008BF10BD012903D0022904BF012007
:105A000010BD032010BD10B5D0F8C402FCF76DF82E
:105A100001004FF0000008BF10BD012903D002298A
:105A200004BF012010BD032010BD70B5134604460D
:105A300021B194F89C02032848D050E0D4F8941285
:105A400004F114000025022939D1D0E90221914244
:105A50000DD2A2EB0102826019462046FFF732FF09
:105A600000231A461946204600F0E2F827E014D138
:105A70004068884211D3D4F8981288420DD200228F
:105A800011462046FFF71EFF00231A4619462046FE
:105A9000C4F8985200F0CCF811E094F89C02032866
:105AA00006D1D4F8B802C16800291CBF2046884737
:105AB0008021204600F061F92046FFF725FF94F889
:105AC000A002012808BF84F8A05208E0D4F8B80268
:105AD000426922B120469047002818BF70BD0020BF
